{
  "contractName": "Voting",
  "abi": [
    {
      "anonymous": false,
      "inputs": [
        {
          "indexed": false,
          "internalType": "address",
          "name": "user",
          "type": "address"
        }
      ],
      "name": "LogFallback",
      "type": "event"
    },
    {
      "anonymous": false,
      "inputs": [
        {
          "indexed": false,
          "internalType": "address",
          "name": "user",
          "type": "address"
        },
        {
          "indexed": false,
          "internalType": "uint256",
          "name": "quantity",
          "type": "uint256"
        }
      ],
      "name": "LogReceive",
      "type": "event"
    },
    {
      "anonymous": false,
      "inputs": [],
      "name": "LogResetVotingSystem",
      "type": "event"
    },
    {
      "anonymous": false,
      "inputs": [
        {
          "indexed": false,
          "internalType": "address",
          "name": "user",
          "type": "address"
        },
        {
          "indexed": false,
          "internalType": "uint256",
          "name": "amount",
          "type": "uint256"
        }
      ],
      "name": "LogWithdraw",
      "type": "event"
    },
    {
      "anonymous": false,
      "inputs": [
        {
          "indexed": true,
          "internalType": "address",
          "name": "previousOwner",
          "type": "address"
        },
        {
          "indexed": true,
          "internalType": "address",
          "name": "newOwner",
          "type": "address"
        }
      ],
      "name": "OwnershipTransferred",
      "type": "event"
    },
    {
      "anonymous": false,
      "inputs": [
        {
          "indexed": false,
          "internalType": "uint256",
          "name": "proposalId",
          "type": "uint256"
        }
      ],
      "name": "ProposalRegistered",
      "type": "event"
    },
    {
      "anonymous": false,
      "inputs": [
        {
          "indexed": false,
          "internalType": "address",
          "name": "voter",
          "type": "address"
        },
        {
          "indexed": false,
          "internalType": "uint256",
          "name": "proposalId",
          "type": "uint256"
        }
      ],
      "name": "Voted",
      "type": "event"
    },
    {
      "anonymous": false,
      "inputs": [
        {
          "indexed": false,
          "internalType": "address",
          "name": "voterAddress",
          "type": "address"
        }
      ],
      "name": "VoterRegistered",
      "type": "event"
    },
    {
      "anonymous": false,
      "inputs": [
        {
          "indexed": false,
          "internalType": "enum Voting.WorkflowStatus",
          "name": "previousStatus",
          "type": "uint8"
        },
        {
          "indexed": false,
          "internalType": "enum Voting.WorkflowStatus",
          "name": "newStatus",
          "type": "uint8"
        }
      ],
      "name": "WorkflowStatusChange",
      "type": "event"
    },
    {
      "stateMutability": "nonpayable",
      "type": "fallback"
    },
    {
      "inputs": [],
      "name": "lastSessionBlock",
      "outputs": [
        {
          "internalType": "uint256",
          "name": "",
          "type": "uint256"
        }
      ],
      "stateMutability": "view",
      "type": "function",
      "constant": true
    },
    {
      "inputs": [],
      "name": "owner",
      "outputs": [
        {
          "internalType": "address",
          "name": "",
          "type": "address"
        }
      ],
      "stateMutability": "view",
      "type": "function",
      "constant": true
    },
    {
      "inputs": [],
      "name": "renounceOwnership",
      "outputs": [],
      "stateMutability": "nonpayable",
      "type": "function"
    },
    {
      "inputs": [
        {
          "internalType": "address",
          "name": "newOwner",
          "type": "address"
        }
      ],
      "name": "transferOwnership",
      "outputs": [],
      "stateMutability": "nonpayable",
      "type": "function"
    },
    {
      "inputs": [],
      "name": "winningProposalID",
      "outputs": [
        {
          "internalType": "uint256",
          "name": "",
          "type": "uint256"
        }
      ],
      "stateMutability": "view",
      "type": "function",
      "constant": true
    },
    {
      "inputs": [],
      "name": "workflowStatus",
      "outputs": [
        {
          "internalType": "enum Voting.WorkflowStatus",
          "name": "",
          "type": "uint8"
        }
      ],
      "stateMutability": "view",
      "type": "function",
      "constant": true
    },
    {
      "stateMutability": "payable",
      "type": "receive",
      "payable": true
    },
    {
      "inputs": [
        {
          "internalType": "uint256",
          "name": "amount",
          "type": "uint256"
        }
      ],
      "name": "withdraw",
      "outputs": [],
      "stateMutability": "nonpayable",
      "type": "function"
    },
    {
      "inputs": [
        {
          "internalType": "address",
          "name": "_addr",
          "type": "address"
        }
      ],
      "name": "getVoter",
      "outputs": [
        {
          "components": [
            {
              "internalType": "bool",
              "name": "isRegistered",
              "type": "bool"
            },
            {
              "internalType": "bool",
              "name": "hasVoted",
              "type": "bool"
            },
            {
              "internalType": "uint256",
              "name": "votedProposalId",
              "type": "uint256"
            }
          ],
          "internalType": "struct Voting.Voter",
          "name": "",
          "type": "tuple"
        }
      ],
      "stateMutability": "view",
      "type": "function",
      "constant": true
    },
    {
      "inputs": [
        {
          "internalType": "uint256",
          "name": "_id",
          "type": "uint256"
        }
      ],
      "name": "getOneProposal",
      "outputs": [
        {
          "components": [
            {
              "internalType": "string",
              "name": "description",
              "type": "string"
            },
            {
              "internalType": "uint256",
              "name": "voteCount",
              "type": "uint256"
            }
          ],
          "internalType": "struct Voting.Proposal",
          "name": "",
          "type": "tuple"
        }
      ],
      "stateMutability": "view",
      "type": "function",
      "constant": true
    },
    {
      "inputs": [
        {
          "internalType": "address",
          "name": "_addr",
          "type": "address"
        }
      ],
      "name": "addVoter",
      "outputs": [],
      "stateMutability": "nonpayable",
      "type": "function"
    },
    {
      "inputs": [
        {
          "internalType": "string",
          "name": "_desc",
          "type": "string"
        }
      ],
      "name": "addProposal",
      "outputs": [],
      "stateMutability": "nonpayable",
      "type": "function"
    },
    {
      "inputs": [
        {
          "internalType": "uint256",
          "name": "_id",
          "type": "uint256"
        }
      ],
      "name": "setVote",
      "outputs": [],
      "stateMutability": "nonpayable",
      "type": "function"
    },
    {
      "inputs": [],
      "name": "nextStatus",
      "outputs": [],
      "stateMutability": "nonpayable",
      "type": "function"
    },
    {
      "inputs": [],
      "name": "resetVotingSystem",
      "outputs": [],
      "stateMutability": "nonpayable",
      "type": "function"
    }
  ],
  "bytecode": "0x60806040524360025534801561001457600080fd5b5061003161002661003660201b60201c565b61003e60201b60201c565b610102565b600033905090565b60008060009054906101000a900473ffffffffffffffffffffffffffffffffffffffff169050816000806101000a81548173ffffffffffffffffffffffffffffffffffffffff021916908373ffffffffffffffffffffffffffffffffffffffff1602179055508173ffffffffffffffffffffffffffffffffffffffff168173ffffffffffffffffffffffffffffffffffffffff167f8be0079c531659141344cd1fd0a4f28419497f9722a3daafe3b4186f6b6457e060405160405180910390a35050565b6121ab80620001126000396000f3fe6080604052600436106100e15760003560e01c8063a2788cce1161007f578063f2fde38b11610059578063f2fde38b1461030b578063f4ab9adf14610334578063f7eeb7f91461035d578063fc1c481e1461038857610121565b8063a2788cce14610266578063bdc01431146102a3578063d4f50f98146102ce57610121565b80632fdae3c5116100bb5780632fdae3c5146101d0578063715018a6146101f95780638da5cb5b14610210578063a1edffa21461023b57610121565b806303b2b7f014610167578063230796ae1461017e5780632e1a7d4d146101a757610121565b36610121577f98c44cd71a4f8250380570aaf8bf1f0fd2a19bc3428a18a782e9e4d6c1928b1333346040516101179291906115d5565b60405180910390a1005b34801561012d57600080fd5b507fb69fd6ce1172b9b256d41565f7bc27f5c13f2fe9d1b78f45c807dd66d97ea6e93360405161015d91906115fe565b60405180910390a1005b34801561017357600080fd5b5061017c61039f565b005b34801561018a57600080fd5b506101a560048036038101906101a09190611659565b610579565b005b3480156101b357600080fd5b506101ce60048036038101906101c99190611659565b6108d2565b005b3480156101dc57600080fd5b506101f760048036038101906101f291906117cc565b61098a565b005b34801561020557600080fd5b5061020e610bcf565b005b34801561021c57600080fd5b50610225610be3565b60405161023291906115fe565b60405180910390f35b34801561024757600080fd5b50610250610c0c565b60405161025d919061188c565b60405180910390f35b34801561027257600080fd5b5061028d60048036038101906102889190611659565b610c1f565b60405161029a919061197b565b60405180910390f35b3480156102af57600080fd5b506102b8610d86565b6040516102c5919061199d565b60405180910390f35b3480156102da57600080fd5b506102f560048036038101906102f091906119e4565b610d8c565b6040516103029190611a6e565b60405180910390f35b34801561031757600080fd5b50610332600480360381019061032d91906119e4565b610ef1565b005b34801561034057600080fd5b5061035b600480360381019061035691906119e4565b610f74565b005b34801561036957600080fd5b50610372611182565b60405161037f919061199d565b60405180910390f35b34801561039457600080fd5b5061039d611188565b005b6103a76112bc565b60058060058111156103bc576103bb611815565b5b600360009054906101000a900460ff1660058111156103de576103dd611815565b5b1461041e576040517f08c379a000000000000000000000000000000000000000000000000000000000815260040161041590611b0c565b60405180910390fd5b60005b6005805490508110156104f157600660006005838154811061044657610445611b2c565b5b9060005260206000200160009054906101000a900473ffffffffffffffffffffffffffffffffffffffff1673ffffffffffffffffffffffffffffffffffffffff1673ffffffffffffffffffffffffffffffffffffffff168152602001908152602001600020600080820160006101000a81549060ff02191690556000820160016101000a81549060ff02191690556001820160009055505080806104e990611b8a565b915050610421565b506000600581111561050657610505611815565b5b600360006101000a81548160ff0219169083600581111561052a57610529611815565b5b02179055506004600061053d9190611406565b600160009055436002819055507fc87c8942b82da15ad4f48dffbdc2e559cb0fad036f0ce948ee8a3e835990d10260405160405180910390a150565b600660003373ffffffffffffffffffffffffffffffffffffffff1673ffffffffffffffffffffffffffffffffffffffff16815260200190815260200160002060000160009054906101000a900460ff16610608576040517f08c379a00000000000000000000000000000000000000000000000000000000081526004016105ff90611c1e565b60405180910390fd5b600380600581111561061d5761061c611815565b5b600360009054906101000a900460ff16600581111561063f5761063e611815565b5b1461067f576040517f08c379a000000000000000000000000000000000000000000000000000000000815260040161067690611b0c565b60405180910390fd5b60011515600660003373ffffffffffffffffffffffffffffffffffffffff1673ffffffffffffffffffffffffffffffffffffffff16815260200190815260200160002060000160019054906101000a900460ff16151503610715576040517f08c379a000000000000000000000000000000000000000000000000000000000815260040161070c90611c8a565b60405180910390fd5b600480549050821061075c576040517f08c379a000000000000000000000000000000000000000000000000000000000815260040161075390611cf6565b60405180910390fd5b81600660003373ffffffffffffffffffffffffffffffffffffffff1673ffffffffffffffffffffffffffffffffffffffff168152602001908152602001600020600101819055506001600660003373ffffffffffffffffffffffffffffffffffffffff1673ffffffffffffffffffffffffffffffffffffffff16815260200190815260200160002060000160016101000a81548160ff0219169083151502179055506004828154811061081257610811611b2c565b5b9060005260206000209060020201600101600081548092919061083490611b8a565b919050555060046001548154811061084f5761084e611b2c565b5b9060005260206000209060020201600101546004838154811061087557610874611b2c565b5b906000526020600020906002020160010154111561089557816001819055505b7f4d99b957a2bc29a30ebd96a7be8e68fe50a3c701db28a91436490b7d53870ca433836040516108c69291906115d5565b60405180910390a15050565b6108da6112bc565b60003373ffffffffffffffffffffffffffffffffffffffff168260405161090090611d47565b60006040518083038185875af1925050503d806000811461093d576040519150601f19603f3d011682016040523d82523d6000602084013e610942565b606091505b505090508015610986577f4ce7033d118120e254016dccf195288400b28fc8936425acd5f17ce2df3ab708338360405161097d9291906115d5565b60405180910390a15b5050565b600660003373ffffffffffffffffffffffffffffffffffffffff1673ffffffffffffffffffffffffffffffffffffffff16815260200190815260200160002060000160009054906101000a900460ff16610a19576040517f08c379a0000000000000000000000000000000000000000000000000000000008152600401610a1090611c1e565b60405180910390fd5b6001806005811115610a2e57610a2d611815565b5b600360009054906101000a900460ff166005811115610a5057610a4f611815565b5b14610a90576040517f08c379a0000000000000000000000000000000000000000000000000000000008152600401610a8790611b0c565b60405180910390fd5b604051602001610a9f90611d7f565b6040516020818303038152906040528051906020012082604051602001610ac69190611dd8565b6040516020818303038152906040528051906020012003610b1c576040517f08c379a0000000000000000000000000000000000000000000000000000000008152600401610b1390611e6c565b60405180910390fd5b610b2461142a565b82816000018190525060048190806001815401808255809150506001900390600052602060002090600202016000909190919091506000820151816000019080519060200190610b75929190611444565b506020820151816001015550507f92e393e9b54e2f801d3ea4beb0c5e71a21cc34a5d34b77d0fb8a3aa1650dc18f6001600480549050610bb59190611e8c565b604051610bc2919061199d565b60405180910390a1505050565b610bd76112bc565b610be1600061133a565b565b60008060009054906101000a900473ffffffffffffffffffffffffffffffffffffffff16905090565b600360009054906101000a900460ff1681565b610c2761142a565b600660003373ffffffffffffffffffffffffffffffffffffffff1673ffffffffffffffffffffffffffffffffffffffff16815260200190815260200160002060000160009054906101000a900460ff16610cb6576040517f08c379a0000000000000000000000000000000000000000000000000000000008152600401610cad90611c1e565b60405180910390fd5b60048281548110610cca57610cc9611b2c565b5b9060005260206000209060020201604051806040016040529081600082018054610cf390611eef565b80601f0160208091040260200160405190810160405280929190818152602001828054610d1f90611eef565b8015610d6c5780601f10610d4157610100808354040283529160200191610d6c565b820191906000526020600020905b815481529060010190602001808311610d4f57829003601f168201915b505050505081526020016001820154815250509050919050565b60015481565b610d946114ca565b600660003373ffffffffffffffffffffffffffffffffffffffff1673ffffffffffffffffffffffffffffffffffffffff16815260200190815260200160002060000160009054906101000a900460ff1680610e215750610df2610be3565b73ffffffffffffffffffffffffffffffffffffffff163373ffffffffffffffffffffffffffffffffffffffff16145b610e60576040517f08c379a0000000000000000000000000000000000000000000000000000000008152600401610e5790611c1e565b60405180910390fd5b600660008373ffffffffffffffffffffffffffffffffffffffff1673ffffffffffffffffffffffffffffffffffffffff1681526020019081526020016000206040518060600160405290816000820160009054906101000a900460ff161515151581526020016000820160019054906101000a900460ff161515151581526020016001820154815250509050919050565b610ef96112bc565b600073ffffffffffffffffffffffffffffffffffffffff168173ffffffffffffffffffffffffffffffffffffffff1603610f68576040517f08c379a0000000000000000000000000000000000000000000000000000000008152600401610f5f90611f92565b60405180910390fd5b610f718161133a565b50565b610f7c6112bc565b6000806005811115610f9157610f90611815565b5b600360009054906101000a900460ff166005811115610fb357610fb2611815565b5b14610ff3576040517f08c379a0000000000000000000000000000000000000000000000000000000008152600401610fea90611b0c565b60405180910390fd5b60011515600660008473ffffffffffffffffffffffffffffffffffffffff1673ffffffffffffffffffffffffffffffffffffffff16815260200190815260200160002060000160009054906101000a900460ff16151503611089576040517f08c379a000000000000000000000000000000000000000000000000000000000815260040161108090611ffe565b60405180910390fd5b6005829080600181540180825580915050600190039060005260206000200160009091909190916101000a81548173ffffffffffffffffffffffffffffffffffffffff021916908373ffffffffffffffffffffffffffffffffffffffff1602179055506001600660008473ffffffffffffffffffffffffffffffffffffffff1673ffffffffffffffffffffffffffffffffffffffff16815260200190815260200160002060000160006101000a81548160ff0219169083151502179055507fb6be2187d059cc2a55fe29e0e503b566e1e0f8c8780096e185429350acffd3dd8260405161117691906115fe565b60405180910390a15050565b60025481565b6111906112bc565b6005600360009054906101000a900460ff1660058111156111b4576111b3611815565b5b106111f4576040517f08c379a00000000000000000000000000000000000000000000000000000000081526004016111eb9061206a565b60405180910390fd5b6000600360009054906101000a900460ff1690506001600360009054906101000a900460ff16600581111561122c5761122b611815565b5b611236919061208a565b600581111561124857611247611815565b5b600360006101000a81548160ff0219169083600581111561126c5761126b611815565b5b02179055507f0a97a4ee45751e2abf3e4fc8946939630b11b371ea8ae39ccdc3056e98f5cc3f81600360009054906101000a900460ff166040516112b19291906120e0565b60405180910390a150565b6112c46113fe565b73ffffffffffffffffffffffffffffffffffffffff166112e2610be3565b73ffffffffffffffffffffffffffffffffffffffff1614611338576040517f08c379a000000000000000000000000000000000000000000000000000000000815260040161132f90612155565b60405180910390fd5b565b60008060009054906101000a900473ffffffffffffffffffffffffffffffffffffffff169050816000806101000a81548173ffffffffffffffffffffffffffffffffffffffff021916908373ffffffffffffffffffffffffffffffffffffffff1602179055508173ffffffffffffffffffffffffffffffffffffffff168173ffffffffffffffffffffffffffffffffffffffff167f8be0079c531659141344cd1fd0a4f28419497f9722a3daafe3b4186f6b6457e060405160405180910390a35050565b600033905090565b508054600082556002029060005260206000209081019061142791906114ef565b50565b604051806040016040528060608152602001600081525090565b82805461145090611eef565b90600052602060002090601f01602090048101928261147257600085556114b9565b82601f1061148b57805160ff19168380011785556114b9565b828001600101855582156114b9579182015b828111156114b857825182559160200191906001019061149d565b5b5090506114c6919061151e565b5090565b6040518060600160405280600015158152602001600015158152602001600081525090565b5b8082111561151a5760008082016000611509919061153b565b6001820160009055506002016114f0565b5090565b5b8082111561153757600081600090555060010161151f565b5090565b50805461154790611eef565b6000825580601f106115595750611578565b601f016020900490600052602060002090810190611577919061151e565b5b50565b600073ffffffffffffffffffffffffffffffffffffffff82169050919050565b60006115a68261157b565b9050919050565b6115b68161159b565b82525050565b6000819050919050565b6115cf816115bc565b82525050565b60006040820190506115ea60008301856115ad565b6115f760208301846115c6565b9392505050565b600060208201905061161360008301846115ad565b92915050565b6000604051905090565b600080fd5b600080fd5b611636816115bc565b811461164157600080fd5b50565b6000813590506116538161162d565b92915050565b60006020828403121561166f5761166e611623565b5b600061167d84828501611644565b91505092915050565b600080fd5b600080fd5b6000601f19601f8301169050919050565b7f4e487b7100000000000000000000000000000000000000000000000000000000600052604160045260246000fd5b6116d982611690565b810181811067ffffffffffffffff821117156116f8576116f76116a1565b5b80604052505050565b600061170b611619565b905061171782826116d0565b919050565b600067ffffffffffffffff821115611737576117366116a1565b5b61174082611690565b9050602081019050919050565b82818337600083830152505050565b600061176f61176a8461171c565b611701565b90508281526020810184848401111561178b5761178a61168b565b5b61179684828561174d565b509392505050565b600082601f8301126117b3576117b2611686565b5b81356117c384826020860161175c565b91505092915050565b6000602082840312156117e2576117e1611623565b5b600082013567ffffffffffffffff811115611800576117ff611628565b5b61180c8482850161179e565b91505092915050565b7f4e487b7100000000000000000000000000000000000000000000000000000000600052602160045260246000fd5b6006811061185557611854611815565b5b50565b600081905061186682611844565b919050565b600061187682611858565b9050919050565b6118868161186b565b82525050565b60006020820190506118a1600083018461187d565b92915050565b600081519050919050565b600082825260208201905092915050565b60005b838110156118e15780820151818401526020810190506118c6565b838111156118f0576000848401525b50505050565b6000611901826118a7565b61190b81856118b2565b935061191b8185602086016118c3565b61192481611690565b840191505092915050565b611938816115bc565b82525050565b6000604083016000830151848203600086015261195b82826118f6565b9150506020830151611970602086018261192f565b508091505092915050565b60006020820190508181036000830152611995818461193e565b905092915050565b60006020820190506119b260008301846115c6565b92915050565b6119c18161159b565b81146119cc57600080fd5b50565b6000813590506119de816119b8565b92915050565b6000602082840312156119fa576119f9611623565b5b6000611a08848285016119cf565b91505092915050565b60008115159050919050565b611a2681611a11565b82525050565b606082016000820151611a426000850182611a1d565b506020820151611a556020850182611a1d565b506040820151611a68604085018261192f565b50505050565b6000606082019050611a836000830184611a2c565b92915050565b600082825260208201905092915050565b7f416374696f6e206e6f7420616c6c6f77656420696e207468697320737461747560008201527f7300000000000000000000000000000000000000000000000000000000000000602082015250565b6000611af6602183611a89565b9150611b0182611a9a565b604082019050919050565b60006020820190508181036000830152611b2581611ae9565b9050919050565b7f4e487b7100000000000000000000000000000000000000000000000000000000600052603260045260246000fd5b7f4e487b7100000000000000000000000000000000000000000000000000000000600052601160045260246000fd5b6000611b95826115bc565b91507fffffffffffffffffffffffffffffffffffffffffffffffffffffffffffffffff8203611bc757611bc6611b5b565b5b600182019050919050565b7f596f75277265206e6f74206120766f7465720000000000000000000000000000600082015250565b6000611c08601283611a89565b9150611c1382611bd2565b602082019050919050565b60006020820190508181036000830152611c3781611bfb565b9050919050565b7f596f75206861766520616c726561647920766f74656400000000000000000000600082015250565b6000611c74601683611a89565b9150611c7f82611c3e565b602082019050919050565b60006020820190508181036000830152611ca381611c67565b9050919050565b7f50726f706f73616c206e6f7420666f756e640000000000000000000000000000600082015250565b6000611ce0601283611a89565b9150611ceb82611caa565b602082019050919050565b60006020820190508181036000830152611d0f81611cd3565b9050919050565b600081905092915050565b50565b6000611d31600083611d16565b9150611d3c82611d21565b600082019050919050565b6000611d5282611d24565b9150819050919050565b6000611d69600083611a89565b9150611d7482611d21565b600082019050919050565b60006020820190508181036000830152611d9881611d5c565b9050919050565b6000611daa826118a7565b611db48185611a89565b9350611dc48185602086016118c3565b611dcd81611690565b840191505092915050565b60006020820190508181036000830152611df28184611d9f565b905092915050565b7f566f7573206e6520706f7576657a20706173206e65207269656e2070726f706f60008201527f7365720000000000000000000000000000000000000000000000000000000000602082015250565b6000611e56602383611a89565b9150611e6182611dfa565b604082019050919050565b60006020820190508181036000830152611e8581611e49565b9050919050565b6000611e97826115bc565b9150611ea2836115bc565b925082821015611eb557611eb4611b5b565b5b828203905092915050565b7f4e487b7100000000000000000000000000000000000000000000000000000000600052602260045260246000fd5b60006002820490506001821680611f0757607f821691505b602082108103611f1a57611f19611ec0565b5b50919050565b7f4f776e61626c653a206e6577206f776e657220697320746865207a65726f206160008201527f6464726573730000000000000000000000000000000000000000000000000000602082015250565b6000611f7c602683611a89565b9150611f8782611f20565b604082019050919050565b60006020820190508181036000830152611fab81611f6f565b9050919050565b7f416c726561647920726567697374657265640000000000000000000000000000600082015250565b6000611fe8601283611a89565b9150611ff382611fb2565b602082019050919050565b6000602082019050818103600083015261201781611fdb565b9050919050565b7f4e6f20737461747573206c656674000000000000000000000000000000000000600082015250565b6000612054600e83611a89565b915061205f8261201e565b602082019050919050565b6000602082019050818103600083015261208381612047565b9050919050565b6000612095826115bc565b91506120a0836115bc565b9250827fffffffffffffffffffffffffffffffffffffffffffffffffffffffffffffffff038211156120d5576120d4611b5b565b5b828201905092915050565b60006040820190506120f5600083018561187d565b612102602083018461187d565b9392505050565b7f4f776e61626c653a2063616c6c6572206973206e6f7420746865206f776e6572600082015250565b600061213f602083611a89565b915061214a82612109565b602082019050919050565b6000602082019050818103600083015261216e81612132565b905091905056fea2646970667358221220bcd5f88b02493e4404bc787a36bf247dbbce6332966dcbcaf1e2b31001c8300564736f6c634300080e0033",
  "immutableReferences": {},
  "source": "// SPDX-License-Identifier: MIT\n\npragma solidity 0.8.14;\nimport \"../node_modules/@openzeppelin/contracts/access/Ownable.sol\";\n\n/// @title Alyra Voting Contract\n/// @author Benjamin Reynes benjmain@morio.co\ncontract Voting is Ownable {\n    uint256 public winningProposalID;\n    uint256 public lastSessionBlock = block.number;\n    struct Voter {\n        bool isRegistered;\n        bool hasVoted;\n        uint256 votedProposalId;\n    }\n\n    struct Proposal {\n        string description;\n        uint256 voteCount;\n    }\n\n    enum WorkflowStatus {\n        RegisteringVoters,\n        ProposalsRegistrationStarted,\n        ProposalsRegistrationEnded,\n        VotingSessionStarted,\n        VotingSessionEnded,\n        VotesTallied\n    }\n\n    WorkflowStatus public workflowStatus;\n    Proposal[] proposalsArray;\n    address[] votersAddressArray;\n    mapping(address => Voter) voters;\n\n    event VoterRegistered(address voterAddress);\n    event WorkflowStatusChange(\n        WorkflowStatus previousStatus,\n        WorkflowStatus newStatus\n    );\n    event ProposalRegistered(uint256 proposalId);\n    event Voted(address voter, uint256 proposalId);\n    event LogWithdraw(address user, uint256 amount);\n    event LogReceive(address user, uint quantity);\n    event LogFallback(address user);\n    event LogResetVotingSystem();\n\n\n    /**\n     * @notice Allows to verify if it's a voter or the Owner\n     */\n    modifier onlyVotersOrOwner() {\n        require(voters[msg.sender].isRegistered || msg.sender == owner(),  \"You're not a voter\");\n        _;\n    }\n\n    /**\n     * @notice Allows to verify if it's a voter or not.\n     */\n    modifier onlyVoters() {\n        require(voters[msg.sender].isRegistered,  \"You're not a voter\");\n        _;\n    }\n\n    /**\n     * @notice Allows to verify if we are in the right status\n     */\n    modifier inStatus(WorkflowStatus _status) {\n        require(workflowStatus == _status, \"Action not allowed in this status\");\n        _;\n    }\n\n    /**\n     * @notice Allows contract to receive Ethers (Security)\n     *\n     * @dev Emit an event if ethers are sent to the contract.\n     */\n    receive() external payable {\n        emit LogReceive(msg.sender, msg.value);\n    }\n\n    /**\n     * @notice Allows to handle bad calls (Security)\n     *\n     * @dev Emit event if bad call.\n     */\n    fallback() external {\n        emit LogFallback(msg.sender);\n    }\n\n    /**\n    * @notice withdraw function. Can only be used by the owner of the contract.\n    *\n    * @dev withdraw function. OnlyOwner.\n    *\n    * @param amount the amount to withdraw.\n    */\n    function withdraw(uint amount) external onlyOwner {\n        (bool success, ) = msg.sender.call{value: amount}(\"\");\n        if (success) {\n            emit LogWithdraw(msg.sender, amount);\n        }\n\n    }\n\n    // ::::::::::::: GETTERS ::::::::::::: //\n\n    /**\n    * @notice getVoter Function, returns the voter object.\n    *\n    * @dev Only Registered Voters can access this fuction.\n    *\n    * @param _addr the address of the desired voter.\n    */\n    function getVoter(address _addr)\n        external\n        view\n        onlyVotersOrOwner\n        returns (Voter memory)\n    {\n        return voters[_addr];\n    }\n\n    /**\n    * @notice getProposal Function, returns the proposal object.\n    *\n    * @dev Only Registered Voters can access this fuction.\n    *\n    * @param _id the id of the desired proposal.\n    */\n    function getOneProposal(uint256 _id)\n        external\n        view\n        onlyVoters\n        returns (Proposal memory)\n    {\n        return proposalsArray[_id];\n    }\n\n    // ::::::::::::: REGISTRATION ::::::::::::: //\n    /**\n    * @notice addVoter Function, registers a voter. Only the owner of the contract can register a voter.\n    *\n    * @dev Emit an event on success.\n    *\n    * @param _addr the address of the voter.\n    */\n    function addVoter(address _addr) external onlyOwner inStatus(WorkflowStatus.RegisteringVoters) {\n\n        require(voters[_addr].isRegistered != true, \"Already registered\");\n\n        votersAddressArray.push(_addr);\n        voters[_addr].isRegistered = true;\n        emit VoterRegistered(_addr);\n    }\n\n    // ::::::::::::: PROPOSAL ::::::::::::: //\n\n    /**\n    * @notice addProposal Function, registers a proposal. Only the owner of the contract can register a proposal\n    *\n    * @dev Emit an event on success.\n    *\n    * @param _desc the description of the proposal.\n    */\n    function addProposal(string memory _desc) external onlyVoters inStatus(WorkflowStatus.ProposalsRegistrationStarted) {\n\n        require(\n            keccak256(abi.encode(_desc)) != keccak256(abi.encode(\"\")),\n            \"Vous ne pouvez pas ne rien proposer\"\n        ); // facultatif\n        // voir que desc est different des autres\n        Proposal memory proposal;\n        proposal.description = _desc;\n        proposalsArray.push(proposal);\n        emit ProposalRegistered(proposalsArray.length - 1);\n    }\n\n    // ::::::::::::: VOTE ::::::::::::: //\n    /**\n    * @notice setVote Function, votes for a proposal. Only Registered Voters can access this fuction.\n    *\n    * @dev Emit an event on success.\n    *\n    * @param _id the id of the proposal to vote for.\n    */\n    function setVote(uint256 _id) external onlyVoters inStatus(WorkflowStatus.VotingSessionStarted) {\n\n        require(voters[msg.sender].hasVoted != true, \"You have already voted\");\n        require(_id < proposalsArray.length, \"Proposal not found\"); // pas oblig, et pas besoin du >0 car uint\n\n        voters[msg.sender].votedProposalId = _id;\n        voters[msg.sender].hasVoted = true;\n        proposalsArray[_id].voteCount++;\n        // Prevent ddos arttack by avoiding to calculate with a loop\n        if (proposalsArray[_id].voteCount > proposalsArray[winningProposalID].voteCount) {\n            winningProposalID = _id;\n        }\n        emit Voted(msg.sender, _id);\n    }\n\n    // ::::::::::::: STATE ::::::::::::: //\n    \n    /**\n    * @notice nextStatus Function, change to the next status. Only the owner of the contract can change the status\n    *\n    * @dev Emit an event on success, revert if status equal to five\n    */\n    function nextStatus() external onlyOwner {\n        require(uint256(workflowStatus) < 5, \"No status left\");\n\n        WorkflowStatus prevStatus = workflowStatus;\n        workflowStatus = WorkflowStatus(uint256(workflowStatus) + 1);\n        emit WorkflowStatusChange(prevStatus, workflowStatus);\n    }\n\n    /**\n    * @notice Reset the voting system\n    *\n    * @dev Emit an event on success, reset workflowStatus, proposalsArray, winningProposalID, voters\n    */\n    function resetVotingSystem() external onlyOwner inStatus(WorkflowStatus.VotesTallied) {\n        for (uint i = 0; i < votersAddressArray.length; i++) {\n            delete voters[votersAddressArray[i]];\n        }\n        workflowStatus = WorkflowStatus(0);\n        delete proposalsArray;\n        delete winningProposalID;\n        lastSessionBlock = block.number;\n        emit LogResetVotingSystem();\n    }\n}\n",
  "sourcePath": "/Users/rey/Code/Alyra/5_Daaps/6_Aly-Vote_Daap/truffle/contracts/Voting.sol",
  "compiler": {
    "name": "solc",
    "version": "0.8.14+commit.80d49f37.Emscripten.clang"
  },
  "schemaVersion": "3.4.7",
  "updatedAt": "2022-07-18T21:11:16.101Z",
  "networkType": "ethereum",
  "devdoc": {
    "author": "Benjamin Reynes benjmain@morio.co",
    "kind": "dev",
    "methods": {
      "addProposal(string)": {
        "details": "Emit an event on success.",
        "params": {
          "_desc": "the description of the proposal."
        }
      },
      "addVoter(address)": {
        "details": "Emit an event on success.",
        "params": {
          "_addr": "the address of the voter."
        }
      },
      "getOneProposal(uint256)": {
        "details": "Only Registered Voters can access this fuction.",
        "params": {
          "_id": "the id of the desired proposal."
        }
      },
      "getVoter(address)": {
        "details": "Only Registered Voters can access this fuction.",
        "params": {
          "_addr": "the address of the desired voter."
        }
      },
      "nextStatus()": {
        "details": "Emit an event on success, revert if status equal to five"
      },
      "owner()": {
        "details": "Returns the address of the current owner."
      },
      "renounceOwnership()": {
        "details": "Leaves the contract without owner. It will not be possible to call `onlyOwner` functions anymore. Can only be called by the current owner. NOTE: Renouncing ownership will leave the contract without an owner, thereby removing any functionality that is only available to the owner."
      },
      "resetVotingSystem()": {
        "details": "Emit an event on success, reset workflowStatus, proposalsArray, winningProposalID, voters"
      },
      "setVote(uint256)": {
        "details": "Emit an event on success.",
        "params": {
          "_id": "the id of the proposal to vote for."
        }
      },
      "transferOwnership(address)": {
        "details": "Transfers ownership of the contract to a new account (`newOwner`). Can only be called by the current owner."
      },
      "withdraw(uint256)": {
        "details": "withdraw function. OnlyOwner.",
        "params": {
          "amount": "the amount to withdraw."
        }
      }
    },
    "title": "Alyra Voting Contract",
    "version": 1
  },
  "userdoc": {
    "kind": "user",
    "methods": {
      "addProposal(string)": {
        "notice": "addProposal Function, registers a proposal. Only the owner of the contract can register a proposal"
      },
      "addVoter(address)": {
        "notice": "addVoter Function, registers a voter. Only the owner of the contract can register a voter."
      },
      "getOneProposal(uint256)": {
        "notice": "getProposal Function, returns the proposal object."
      },
      "getVoter(address)": {
        "notice": "getVoter Function, returns the voter object."
      },
      "nextStatus()": {
        "notice": "nextStatus Function, change to the next status. Only the owner of the contract can change the status"
      },
      "resetVotingSystem()": {
        "notice": "Reset the voting system"
      },
      "setVote(uint256)": {
        "notice": "setVote Function, votes for a proposal. Only Registered Voters can access this fuction."
      },
      "withdraw(uint256)": {
        "notice": "withdraw function. Can only be used by the owner of the contract."
      }
    },
    "version": 1
  }
}